:020000041005E5
:10180000006000204DEB051005DE0510B1BB051092
:10181000AA5555AA45554C420000000000000000A2
:101820000000000000000000000000007504061029
:10183000000000000000000091E30510FD0D0610FF
:1018400035980510EDDE05100000000000000000D6
:10185000E112061073040610D96C05101D21061044
:101860000000000000000000000000000000000078
:101870000000000027520510B5BB0510B3BB0510D2
:101880000000000085D9051087D9051089D90510F9
:101890008BD905106DEB05101DDF05105B79051068
:1018A0000000000000000000000000000000000038
:1018B0000000000000000000000000000000000028
:1018C000EFF31482EFF309811C4880F31488BFF30F
:1018D0006F8FF0B543464C4655465E466746F8B4B2
:1018E000174CEFF30883236006B4164C2068164C9F
:1018F0002060164C2068164C2060164C2068164C50
:101900002060164C276800202060BFF34F8F30BF47
:1019100027600B4C246884F3088882B003BCF8BCB1
:101920009846A146AA46B346BC46F0BC04BC80F328
:10193000098881F31488BFF36F8F104700000000FF
:101940000800002004ED00E0F002002024ED00E09B
:10195000F402002000E200E0F8020020080020402D
:101960000348854603F0D6FA004800476D87061005
:101970000060002070B50D460446092102F072FE99
:10198000297808464238182805D22031300AC9B2D1
:101990000002084302E0300A0002084369780A4660
:1019A000423A182A01D22031C9B2FF22120209029A
:1019B000904311400843A9780A46423A182A01D2B6
:1019C0002031C9B2FF221204090490431140084398
:1019D0000121C3B28A1E732B12D006DC642B13D0F4
:1019E000652B07D06E2B10D106E0752B0AD0772B14
:1019F0000BD103E0217008E0E17006E0227004E002
:101A0000E27002E0A17100E0A27103041B0E732BCF
:101A100012D006DC642B13D0652B07D06E2B10D1AF
:101A200006E0752B0AD0772B0BD103E0617008E03C
:101A3000217106E0627004E0227102E0E17100E0D1
:101A4000E2710002000E732810D007DC642811D068
:101A5000652809D06E2800D1617170BD752807D046
:101A60007728FAD1A27070BDA17070BD627170BD8F
:101A7000217270BD227270BDF0B5044689B048680D
:101A80000290FF20CD68C0058F680E68C54206D35E
:101A90000002029947404140464045400291029968
:101AA000084602F079FE39460490084602F074FEBA
:101AB00031460590084602F06FFE0690049905989D
:101AC00002F011FE012102F0E2FE7F21C90502F0C1
:101AD0005FFE07903146029802F05EFE08902946AC
:101AE000384602F059FE089902F0FDFD012102F08E
:101AF000CEFE079912F08CFE0121C90748402060F4
:101B00000699049802F0EFFD012102F0C0FE7F214A
:101B1000C90502F03DFE04902946304602F03CFE25
:101B200006903946029802F037FE069902F0DBFD76
:101B3000012102F0ACFE049912F06AFE0121C907EE
:101B4000484060603146384602F026FE0646294687
:101B5000029802F021FE314602F016FE012102F049
:101B600096FE12F0C9FD0121C90748400546A06054
:101B7000FF212068C905C84203D3FE4902F0B3FD26
:101B80002060FD4E314602F007FEFC4F394602F060
:101B900040FE20603146606802F0FEFD394602F0EA
:101BA00038FE60603146284602F0F6FD394602F004
:101BB00030FEA06009B0F0BDF0B50D46064685B018
:101BC00014465168A86802F0E7FD0290A1686868B1
:101BD00002F0E2FD0490E168286802F0DDFD0746AE
:101BE0002168E86802F0D8FD394602F07CFD0499CE
:101BF00002F079FD029902F0C7FD30602168A86803
:101C000002F0CAFD0490E168686802F0C5FD039027
:101C1000A168286802F0C0FD07466168E86802F024
:101C2000BBFD394602F0B0FD039902F05CFD04995A
:101C300002F059FD7060E168A86802F0ADFD049003
:101C40002168686802F0A8FD03906168286802F0C6
:101C5000A3FD0746A168E86802F09EFD394602F040
:101C600042FD039902F090FD049902F03CFDB06042
:101C7000A168A86802F090FD00906168686802F0B1
:101C80008BFD07462168286802F086FD0390E16815
:101C9000E86802F081FD039902F076FD394602F012
:101CA00073FD009902F070FDF06005B0F0BDF0B575
:101CB0000A460446A3B0B249104602F06DFD06463E
:101CC000B04D3146A86902F067FD0E903146E869D3
:101CD00002F062FD254606468035E879002809D0E5
:101CE00001210E9802F0D3FD0E900121304602F042
:101CF000CEFD0646287B002800D10E90687B002888
:101D000000D10026A0490F684868896810910D909D
:101D10006879002802D07F20C0050E9021464C3102
:101D2000224605A80F9102F082F90D99079802F05A
:101D300033FD11901099069802F02EFD119902F0D2
:101D400023FD00901099059802F026FD1190394668
:101D5000079802F021FD119902F016FD0190394615
:101D6000069802F019FD07460D99059802F014FD3A
:101D7000394602F009FD02900321684602F02DF970
:101D80000D2189060490884214DD01467F20C0059C
:101D900002F03FFD07463946009802F0FDFC009036
:101DA0003946019802F0F8FC01903946029802F099
:101DB000F3FC02E00020009001900290079811F0DF
:101DC0004FFD0E9902F0E8FC0021C94302F05FFDCF
:101DD0000D9013F059FC07460D9817F035F90D904A
:101DE000009902F0D9FC1A9001990D9802F0D4FCE8
:101DF0001B9002990D9802F0CFFC1C9020465C309D
:101E00000F9A1D971AA91E90FFF7D6FE2879002871
:101E10007ED15D4A57691169D06822912190687915
:101E2000002801D07F26F605224634320DA81E99DF
:101E300002F0FDF80E99084602F0AEFC0D992090D4
:101E4000084602F0A9FC209902F04DFC18F046FC6F
:101E500001460D2204989206904203DD0E9802F08E
:101E6000D8FC00E000200E90FF210D98C905C84263
:101E700001D3080247400E9811F0F2FC3E4904904D
:101E800002F08AFC3D4902F0C4FC19903D48C1783B
:101E9000012912D14168199802F008FF01D20120EE
:101EA000A8733848C178012907D18168199802F0D0
:101EB00007FF02D20020A87303E0A87B002800D00F
:101EC00000263146049802F067FC0021C94302F065
:101ED000DEFC039013F0D8FB0646039817F0B4F825
:101EE0000390219902F058FC14902299039802F073
:101EF00053FC15903946039802F04EFC1690179645
:101F000014A910A81E9AFFF757FE5C3410A800E031
:101F100002E00FC80FC46C3C0120E16DC0074140D6
:101F20000891216E002641400991616E2246414090
:101F30000A91A06E0B90E6667F20C00526676C3282
:101F40006067104608A902F072F8E16E206802F09E
:101F50001BFCA067216F606802F016FCE067616FF0
:101F6000A06802F011FC28606879002800D06E712A
:101F700023B0F0BDDB0FC94000003443DB0F494004
:101F80000000C8422804002074AC0610F7B50446CF
:101F90008EB000200D460A9004900590032128463B
:101FA00002F01BF80C90FE481099006902F0F4FB57
:101FB000FC4902F0F1FB7F21C905074688427CDC21
:101FC000264680367079002805D0286860616868E8
:101FD000A061A868E061606903902868039902F035
:101FE000D3FB01460190384602F0D6FB0146009033
:101FF000039802F078FB60610099019802F0CCFB35
:10200000216A02F070FB01907F203946C00502F082
:10201000BBFB0D90019902F0BFFB2062A069039009
:102020006868039902F0B0FB01460190384602F05F
:10203000B3FB01460090039802F055FBA0610099A4
:10204000019802F0A9FB616A02F04DFB01460D9870
:1020500002F0A2FB6062E0690390A868039902F0B5
:1020600093FB01460190384602F096FB0746014675
:10207000039802F038FBE0613946019802F08CFBCE
:10208000A16A02F030FB01460D9802F085FBA062C8
:10209000E068C349400000274008096B02F006FED3
:1020A0004AD2BF48816A206902F000FE44D2286803
:1020B000BB4940004008496B00E0FBE002F0F6FD40
:1020C0003AD26868B64940004008496B02F0EEFD1C
:1020D00032D2A868B24940004008496B02F0E6FDE0
:1020E0002AD26069AE4940004008496B02F0DEFD2B
:1020F00022D2A069AA4940004008496B02F0D6FDEF
:102100001AD2E069A64940004008496B02F0CEFDB2
:1021100012D2A348C16A206A02F0C8FD0CD2A048BE
:10212000C16A606A02F0C2FD06D29D48C16AA06A17
:1021300002F0BCFD00D20127F771002F0DD09848A6
:10214000816BB06802F0B2FD09D2B068109902F05C
:10215000CAFAB0600020F07101E00020B06092483F
:102160000078012801D00C9853E08D4FB068B96B0E
:1021700002F0A6FD39D8B07900287DD0786A109990
:1021800002F00AFB874902F007FB7F27FF0506469E
:10219000B84272DC3046296802F0FEFA01903146FE
:1021A000384602F0F1FA0746216C02F0F5FA01997F
:1021B00002F099FA20643046696802F0EDFA029064
:1021C0003846616C02F0E8FA029902F08CFA606419
:1021D0003046A96802F0E0FA06463846A16C02F0E3
:1021E000DBFA314602F07FFAA064216C286802F025
:1021F000CBFA2860616C686802F0C6FA6860A16C6E
:10220000A86802F0C1FAA8600321284601F0E5FEA3
:102210000C904000000E14D07F20C0050C9902F0F5
:10222000F8FA06463146286802F0B6FA0A903146B6
:10223000686802F0B1FA04903146A86802F0ACFA7E
:10224000059010990C9802F0A7FA584902F0A4FAE8
:10225000574902F0DEFA0021C94302F018FB064696
:1022600013F012FA0546304616F0EEFE06460A99BD
:1022700002F092FA069001E014E01EE03046049964
:1022800002F08AFA07903046059902F085FA089024
:102290002146204606AA5C3109954C30FFF78CFC9C
:1022A00011B0F0BD0120B07160692064A069606464
:1022B000E06999E77F27FF0582E63E466AE7F8B5C1
:1022C0000646022014460D46085602F007FCA16897
:1022D00002F062FA00900120285602F0FFFB6168CC
:1022E00002F05AFA07460020285602F0F7FB216850
:1022F00002F052FA394602F0F6F9009902F0F3F9C9
:1023000030600520285602F0E9FBA16802F044FA8B
:1023100000900420285602F0E1FB616802F03CFACC
:1023200007460320285602F0D9FB216802F034FA50
:10233000394602F0D8F9009902F0D5F9706008200A
:10234000285602F0CBFBA16802F026FA0090072085
:10235000285602F0C3FB616802F01EFA0746062009
:10236000285602F0BBFB216802F016FA394602F04B
:10237000BAF9009902F0B7F9B060F8BDF1B50E4EA8
:102380000C480E49706001600D49416000680024EE
:10239000047001208007009902F03BFA716811E097
:1023A000280400200000C84248040020DB0F4940F8
:1023B0000000344320040020180400206C0C00208E
:1023C000A00C00200A687F255060ED050A68A8422D
:1023D00000DD284650600868FD4A8260FD4AC26000
:1023E000FD4A0261FD4A4261FD4AC5618261FD4AC2
:1023F0000262322282841422C284FB4AC2626422B4
:102400000286FA4A826249680120087077681320C0
:10241000796880010E180020B481C043F081092141
:102420007868C9014018046544658465F0480099DE
:1024300002F0B2F9EF4902F0ECF913F089F802F07A
:102440009AFBB083F483EC48009902F0A5F9E949BE
:1024500002F0DFF913F07CF802F08DFB3084748415
:102460004F207E680001FF213018693102F0FAF830
:10247000032040023018C46504664466CD227968A2
:10248000D20089180C604C608C60CC600C614C618F
:102490008C61CC610C620D217A68C90151188D6084
:1024A00085678566CD6019217868890140180476B2
:1024B000F8BDD24900284A68126810704968096856
:1024C00004D0012801D1CE48C8627047C648FBE756
:1024D000F0B58BB000270D460A970446C1684068E6
:1024E00002F0E4FB0AD1A169A06802F0DFFB05D18C
:1024F000E169606902F0DAFB00D10127E1696069F6
:1025000002F04AF90646216A206902F045F931468F
:1025100002F03AF9286005900090216AE06802F024
:102520003BF90646A169606902F036F9314602F0CE
:102530002BF9E86003900190A169206902F02CF961
:102540000646E169E06802F027F9314602F01CF91D
:102550000646A861A0683146049002F01DF9079074
:102560006068019902F018F90890206801900099BC
:1025700002F012F9089902F0B6F8079902F0B3F8E0
:1025800000904000000E61D0A069049902F004F9A7
:102590000690206A019902F0FFF8069902F0F4F81B
:1025A000286106902168E06902F0F6F80190616800
:1025B000A06902F0F1F8019902F0E6F8E8610190F3
:1025C0006168E06802F0E8F804902168206902F090
:1025D000E3F8049902F0D8F828620490002F38D06C
:1025E0000398AE606860019868610099059802F0F0
:1025F00010F928606868009902F00BF96860A86813
:10260000009902F006F9A8600099039802F001F918
:10261000E8600099069802F0FCF828616869009962
:1026200002F0F7F868613046009902F0F2F8A8610C
:102630000099019802F0EDF8E8610099049802F021
:10264000E8F8286201200A900BB0F0BD0A980BB0A0
:10265000F0BD6168206A02F09FF80746A168E06952
:1026600002F09AF8394602F08FF86860A168206994
:1026700002F092F807466168606902F08DF8394609
:1026800002F082F8A8602168606902F085F80746C8
:10269000A168E06802F080F8394602F075F8A3E717
:1026A000FFB58FB00446049080001099099045183A
:1026B000A868014602F070F8074610988068014645
:1026C00002F06AF8064610984068014602F064F885
:1026D000314602F008F8394602F005F8059040004E
:1026E000010EE000109A0C908418166800296DD035
:1026F000686803900146304601F0F5FFA768394647
:1027000001F0F1FF3F4902F084F8019001210598A2
:1027100002F0BDF805903846019902F035F80146FF
:1027200002F03AF802900199039802F02DF8014660
:1027300002F032F807463046019902F025F80146CA
:1027400002F02AF8394601F0CEFF029901F0CBFFE2
:10275000059901F0C8FF2C4902F05BF817F0BEFFA5
:10276000009010980199006802F00EF8009902F0AC
:1027700050F8089010980099406802F04AF80790C5
:1027800010980099806802F044F80746099910985B
:102790004058009902F03DF806906868019901F0F0
:1027A000F3FF009902F035F80646A868009902F098
:1027B00030F80B900C9910984058009902F029F8C5
:1027C00005466068009902F024F81FE066E000000A
:1027D0000AD7233C17B7D138EC51B83D000044422A
:1027E0000000614348E1FA3E9A99993E0000A040FA
:1027F0000000C84200007A4400004842180400204B
:10280000CDCCCC3D000040400000C0400C90A06802
:10281000019901F0B9FF009901F0FBFF0446294638
:10282000304601F0B9FF02900C99069801F0B4FF10
:10283000029901F0A9FF394601F0AEFF074629468B
:102840000B9801F0A9FF05462146069801F0A4FF68
:10285000294601F099FF079901F09EFF05460C9962
:102860000B9801F099FF07902146304601F094FF44
:10287000079901F089FF089901F08EFF294601F0C0
:1028800083FF394601F02FFF0021C94301F0FFFF0C
:102890008121C905C8420AD3FE4C14E01198066094
:1028A0001198696841601198A168816039E07F21C1
:1028B000C905884201DB002405E010F0D1FFF6498C
:1028C00001F0A7FF0446204612F0DEFE0646012175
:1028D000009801F0DCFF0546314601F05DFF0199EB
:1028E00001F001FF11994860EC49204601F0FBFE20
:1028F00012F0CAFE0146284601F04EFF019901F090
:10290000F2FE119904468860E349019801F044FF02
:102910001199496801F038FF214601F035FF1199FE
:102920000860189800287DD00020079000200190B2
:1029300005900798850005980C225043129A0021B3
:10294000861871510C46059904980327484310993D
:102950008000401809900999A00008580390049835
:102960006043810010980818405902900798012888
:10297000059864D0A0420BD107980321401C01F0B8
:102980001FFE119889004158039801F0FDFE039045
:102990000798A0420AD10321801C01F011FE119872
:1029A00089004158029801F0EFFE029002990398C5
:1029B00001F0F2FE715901F096FE641C7F1E3F0685
:1029C00070513F0EC7D1014601F0E6FE014601F00D
:1029D000E3FE019901F087FE01900598401CC0B20A
:1029E00005900328A7D3019817F078FE06461298A1
:1029F00040594100090E05D0314601F00AFF014659
:102A00001298415112982C18E0684100090E03D029
:102A1000314601F0FEFEE060A0694100090E05D0DC
:102A2000314600E009E001F0F4FEA0610798401C87
:102A3000C0B20790032800D278E713B0F0BDA042DF
:102A400005D111980168039801F09EFE0390012CB6
:102A5000ACD111988168029801F096FE0290A5E72A
:102A6000F7B5E8B0FF220146693208A801F0D2FDAF
:102A7000002001906A98002869D9401C64906A98E7
:102A8000002700285BD901982821484308A940184D
:102A900004900198810004980291401867906A9907
:102AA0000198081A0121C207C9075118401C40109B
:102AB00066916590019887423CD0029A049908A8D3
:102AC000895828227A43141802982058064601F0A3
:102AD000A0FE00900199649881422BD20298679DD4
:102AE00024186698241F2D1F002809D069682D1D01
:102AF000009801F051FE314601F04AFE6060241D4D
:102B000065980606360E15D06968009801F044FEF7
:102B1000616801F03DFE6060A9680835009801F029
:102B20003BFEA16801F034FEA0600834761E360634
:102B3000360EE9D17F1C6A98FFB28742BAD301985A
:102B4000401CC0B2014601906A98814297D3002888
:102B500030D0810008A8699D0E182D1F6A980024A6
:102B6000283EC00707D0B06A0899283601F051FE08
:102B7000012468602D1D6A9847081BD02820214633
:102B8000414308A80818A100019107904158B06A74
:102B900001F03FFE6860019907984018C16A306DE6
:102BA000503601F036FEA860A41C08357F1E3F0693
:102BB0003F0EE3D16BB0F0BDF7B5FFB095B001208B
:102BC000374C769066684F20756800012918FF22FF
:102BD00069320EA801F01EFD032040022A18116E72
:102BE000D06D526E819280917F903068007801287C
:102BF00002D00422002525E0CD20C000281866C898
:102C000077AB66C366C866C3006809228490F1E7A3
:102C1000002D17D0A9000EA8282309186B431818F7
:102C2000001F2839EB0703D08B6A4360001D283151
:102C30006B0807D08E6A46600E6D86600830503192
:102C40005B1EF7D16D1CEDB29542E1D304A90EA82D
:102C5000FFF706FF124809274568FF01286800783A
:102C6000002804987ED00E9007980F900898109036
:102C70000A981190079818900598199009981A9039
:102C80000B981B90089822900998239006982490FE
:102C90000C9807E0920A863F00004040920A0640E6
:102CA0001804002025900A982C900B982D900C98D1
:102CB0002E90FE482F90032204A90EA8FFF7D0FE05
:102CC00004983906484001460490F948446865680C
:102CD000E819406E01F007FD03267602A919C865C0
:102CE0000598B1054840059065680146E819806E71
:102CF00001F0F9FCA91908660698B105484006904C
:102D000064680146E019C06E01F0EDFCA119486647
:102D10007F25ED050024079504990E9801F03CFDF0
:102D2000214601F0E0FC04460599189801F034FDB5
:102D3000214601F0D8FC04460699229801F02CFDAA
:102D4000214601F0D0FC044629462C9801F024FDD0
:102D5000214601F0C8FC2C90002404990F9801F042
:102D60001BFD00E027E1214601F0BDFC044605996A
:102D7000199801F011FD214601F0B5FC04460699B1
:102D8000239801F009FD214601F0ADFC04462946D7
:102D90002D9801F001FD214601F0A5FC2D900024A5
:102DA0000499109801F0F8FC214601F09CFC0446BF
:102DB00005991A9801F0F0FC214601F094FC0446B4
:102DC0000699249801F0E8FC214601F08CFC0446A9
:102DD00029462E9801F0E0FC214601F084FC2E905B
:102DE00000240499119801F0D7FC214601F07BFCE6
:102DF000044605991B9801F0CFFC214601F073FCB5
:102E000004460699259801F0C7FC214601F06BFCA9
:102E1000044629462F9801F0BFFC214601F063FCCF
:102E20002F90002404992C9801F0B6FC214601F063
:102E30005AFC044605992D9801F0AEFC214601F09C
:102E400052FC044606992E9801F0A6FC214601F09A
:102E50004AFC044629462F9801F09EFC214601F0C9
:102E600042FC01462F90280241400C460E9801F08A
:102E7000D0FC0E9021460F9801F0CBFC0F9021461C
:102E8000109801F0C6FC10902146189801F0C1FC82
:102E900018902146199801F0BCFC199021461A9807
:102EA00001F0B7FC1A902146229801F0B2FC229062
:102EB0002146239801F0ADFC23902146249801F08F
:102EC000A8FC24900120009068AB01AA0EA90A205A
:102ED000FFF7E6FB01987749400000240E464008C2
:102EE00001F0E4FE02D201984600760801982146DE
:102EF0004000400801F0E4FE02D20198440064085A
:102F0000029831464000400801F0D0FE02D20298FB
:102F100046007608029821464000400801F0D0FEA5
:102F200002D20298440064080398314640004008E9
:102F300001F0BCFE02D203984600760803982146B1
:102F40004000400801F0BCFE02D20398440064082F
:102F50003146204601F05DFC554E71680968896A6A
:102F600001F0AEFE74D2706813214368002289011B
:102F7000D2435B18DA814368002259188A8141687C
:102F80004F2000010818FF21693101F06BFB7068C8
:102F90000321426849025418819B809A7F99636695
:102FA0002266E1650168097801297DD000207690CC
:102FB0007FB018B0F0BD0021C94301F068FC049057
:102FC0006E680146F019406E01F08DFB0324640227
:102FD0003119C8650021C943059801F058FC0590D6
:102FE0006E680146F019806E01F07DFB31190866AC
:102FF0000021C943069801F04AFC06906D6801461D
:10300000E819C06E01F06FFB291948660699084659
:1030100001F0C2FB05990546084601F0BDFB049985
:103020000446084601F0B8FB079901F05CFB214615
:1030300001F059FB294601F056FB17F04FFB1C49E4
:1030400049684A680D21C9015118C86039E1FFE794
:10305000019841004908284601F0DBFB17F03EFBD0
:10306000689A0146104601F0D4FB71680324496850
:10307000640209198866029841004908284601F04F
:10308000C8FB17F02BFB0146699801F0C2FB716881
:1030900049680919C866039841004908284601F0A3
:1030A000B8FB17F01BFB07E06DE10000000080BFDC
:1030B00018040020FFFF7F7F01466A9801F0A9FBFA
:1030C000716849680919086701984100490828464C
:1030D00001F09FFB17F002FB01466B9801F099FB92
:1030E00071684968091948670298410049082846EB
:1030F00001F08FFB17F0F2FA6C9A0146104601F0CE
:1031000088FB716849680919886703984100490874
:10311000284601F07EFB17F0E1FA6D9A0146104651
:1031200001F077FB716849680919C8670198410087
:103130004908284601F06DFB17F0D0FA6E9A014657
:10314000104601F066FB71680D244968E401091915
:103150000860029841004908284601F05AFB17F020
:10316000BDFA6F9A0146104601F053FB7168496839
:1031700009194860039841004908284601F049FBB5
:1031800017F0ACFA709A0146104601F042FB7168E4
:103190004968091988608AA968A8FFF799F9002485
:1031A00002E0011B00295EDD2820214641430EA8D4
:1031B0000918A0000F188AA945180020759003204F
:1031C000001BC0B283902E46CD2120460C220C3627
:1031D000C90050434118729771958991FE49411871
:1031E00088916721090140181835879000203860C0
:1031F0007198899A02C87190F84840684068805870
:1032000001F0CAFA002101F06EFA38608690F348A6
:1032100002CE406842688898105801F0BDFA86993D
:1032200001F061FA38608690EC48879A406802CDD8
:103230004068805801F0B0FA869901F054FA38607D
:103240007599002901D07299086072983F1D283045
:1032500072907598401C75908398401EC0B2839000
:103260000028C3D10320641CE4B2032C99D3DB48AB
:1032700003214068490243680E9A5B189A664368C6
:103280000F9A5B18DA664368109A5B181A674368EE
:10329000189A5B185A674368199A5B189A674368CB
:1032A0001A9A5918CA670D214368C901229A5B18F6
:1032B0001A604368239A5B185A604068249A401841
:1032C0008260C6480024406801680978012966D0F8
:1032D0004168032040020E18F16D949801F054FAF1
:1032E0000446316E959801F04FFA0546716E969836
:1032F00001F04AFA014601F04FFA0646294608460F
:1033000001F04AFA05462146084601F045FA2946E9
:1033100001F0E9F9314601F0E6F917F0DFF9AF4CB9
:103320000D216568C9016A685118C96801F02CFA55
:10333000296840004008C96A01F0C2FC7ED260687A
:103340001321436800228901D2435B18DA81436864
:10335000002259188A8141684F2000010818FF2176
:10336000693101F07FF9606803214268490254180D
:10337000819B809A7F9963662266E165016809787E
:10338000012900D012E64168CD20C000081877ADB1
:103390001ECD1EC01ECD1EC08499016006E6406889
:1033A0000321490245188390E96D949801F0ECF9E6
:1033B0000646A96E01F0F0F9214601F094F907469E
:1033C0003046E96E01F0E8F9214601F08CF90D90E4
:1033D0003046296F01F0E0F9214601F084F90646F4
:1033E000296E959801F0D0F90446696F01F0D4F97F
:1033F000394601F078F900902046A96F01F0CCF928
:103400000D9901F070F90D902046E96F01F0C4F9B3
:10341000314601F068F97190696E969801F0B4F93F
:1034200007460D218398C90146183846316801F0D6
:10343000B3F9009901F057F9044600E00FE038466F
:10344000716801F0A9F90D9901F04DF9054638466A
:10345000B16801F0A1F9719901F045F94AE7769850
:103460007FB018B0F0BDF8B50E4607460968006891
:1034700001F08AF904467168786801F085F905461B
:10348000B168B86801F080F9014601F085F9064697
:103490002846294601F080F905462046214601F0DC
:1034A0007BF9294601F01FF9314601F01CF9F8BDFE
:1034B000FFB58BB00D99039148490C9E4D680B9850
:1034C0006F6800243978002903D078606868046147
:1034D00022E07968049101F057F901902868019978
:1034E000406801F059F901460090049801F0FBF89A
:1034F00078600099019801F04FF96F68396901F01F
:10350000F2F80090286841687F20C00501F03CF97E
:10351000009901F041F938616F683878002803D0CC
:10352000BE606868446124E0B8680490304604993D
:1035300001F02AF9019028680199406801F02CF9FE
:1035400006460146049801F0CEF8B860314601986D
:1035500001F022F96F68796901F0C5F8064628681C
:1035600041687F20C00501F00FF9314601F014F9E0
:1035700078616F68194E3878002804D00398F86095
:103580006868846124E0F86802900299039801F069
:10359000FBF8019028680199406801F0FDF80146A8
:1035A0000090029801F09FF8F8600099019801F0EE
:1035B000F3F86F68B96901F096F8009028684168DF
:1035C0007F20C00501F0E0F8009901F0E5F8B8614E
:1035D00068680178002903E06C06000018040020E8
:1035E00000D00470716805914D680020296901F0D0
:1035F0007AF8696901F077F8A96901F074F8019027
:103600004D2000012F1839680B9801F0BDF80546D0
:1036100079680C9801F0B8F80490B9680D9801F039
:10362000B3F8014601F0B8F800900498014601F0A3
:10363000B3F807462946084601F0AEF8394601F0CE
:1036400052F8009901F04FF8009005990868C16997
:10365000019801F035FB06D370680068016A009894
:1036600001F02EFB06D27068416813208001081813
:1036700044840AE070684168132080010818418C76
:10368000028C914201D2491C4184F74813214068C1
:103690008901476879184A8C098C8A427ED11921A0
:1036A00089017918097E022979D3006801780320FD
:1036B0004002012939D03D18E96D0B9801F064F8FA
:1036C0000646296E0C9801F05FF80746696E0D9862
:1036D00001F05AF8014601F05FF8049038460146BF
:1036E00001F05AF805463146084601F055F82946DA
:1036F00000F0F9FF049900F0F6FF16F0EFFFDA4D45
:103700000D216E68C90172685118C96801F03CF852
:10371000316840004008C96A01F0C8FA6868416829
:10372000D24861D20818C48365E03D18E96D0B9852
:1037300001F02AF80646A96E01F02EF8214600F0A5
:10374000D2FF02903046E96E01F026F8214600F0E3
:10375000CAFF03903046296F01F01EF8214600F0A1
:10376000C2FF0490296E0C9801F00EF80646696FAE
:1037700001F012F8029900F0B6FF02903046A96FEE
:1037800001F00AF8039900F0AEFF03903046E96FAC
:1037900001F002F8049900F0A6FF01E0BFE038E074
:1037A0000490696E0D9800F0EFFF05460D20C001F2
:1037B000381808900168284600F0EEFF029900F0E2
:1037C00092FF064608984168284600F0E5FF0399F5
:1037D00000F089FF074608988168284600F0DCFF62
:1037E000049900F080FF75E70818C18B828B914225
:1037F00001D2491CC18368681321406889014118BE
:10380000CA8B898B8A4204D119210122890140186F
:103810000276954D686800688168019801F050FA59
:103820007DD268680068C168009801F049FA76D2D4
:103830002846406804904168132080010A18908946
:10384000002865D00E20105E0C2250431C300F184B
:1038500039680B9800F098FF054679680C9800F0DD
:1038600093FF0646B9680D9800F08EFF014600F000
:1038700093FF07463046314600F08EFF0646284645
:10388000294600F089FF314600F02DFF394600F04F
:103890002AFF0746049800684169384601F010FA8B
:1038A0001AD2714D686800688169384601F0FEF9E6
:1038B00012D268681321436800228901D2435B1841
:1038C000DA81426851188C8140684F210901401803
:1038D000FF21693100F0C6FE634D13266868B6010A
:1038E000416889198989002912D000680169384620
:1038F00001F0E6F965D2686800688169384601F030
:10390000D5F95ED26868406880198089002811D195
:10391000554800254768AE000BA8805900E050E0EC
:1039200017F060F852497A6871186D1CEDB250506A
:10393000032DF0D34C4E13257068AD01406864210F
:1039400047190E20385E401C00F050FEF9810BA88C
:1039500000F03CFC706841684A199189642901D2E1
:10396000491C918140680E214219515E0C2251433D
:103970001C3140180D9B0C9A0B99836042600160CA
:1039800071684868096842199289C98C8A4218D3BB
:103990001927BF01C019007E032812D20D9A0C9975
:1039A0000B98FFF709F900280BD071684868421995
:1039B0009289642A20D00222C019027648684019F0
:1039C000C483294C09226068D20141680D9D891881
:1039D0000C9B0B9A8D654B650A654068254934221E
:1039E00041180E9800F016FE6068416819208001A9
:1039F0000818007E0FB0F0BD0322C0190276DDE783
:103A0000002001E0401CC0B21BA1095C0029F9D1D3
:103A1000704719A212780021002A08D016A2525C21
:103A20004254491CC9B214A2525C002AF6D10022A9
:103A300042547047002001E0401CC0B21CA1095C48
:103A40000029F9D170471AA212780021002A08D063
:103A500017A2525C4254491CC9B215A2525C002AFA
:103A6000F6D100224254704718040020C004000020
:103A7000E40400005C06000053544D204C6F772D89
:103A8000706F776572204D61676E65746F6D6574D8
:103A900065722043616C6962726174696F6E207631
:103AA000312E312E302D7374617469630000000073
:103AB00053544D204D61676E65746F6D657465720A
:103AC0002043616C6962726174696F6E204D61742C
:103AD00068204C6962726172792076312E30000064
:103AE00010B5F84864210268520852000260F64896
:103AF000012383608268002A02D0491EFAD107E0C0
:103B0000002905D0F14901600068F149884206D0DA
:103B1000F048806BF049000C884200D0FEE7EF4887
:103B20000370EF4800F029FAEE4800F026FAEEA103
:103B3000EE48FDF71FFFECA1ED48FDF71BFFEAA1E2
:103B4000EC48FDF717FF10BD70B50D46E34914466C
:103B5000097800290BD00146E448FDF70BFF294600
:103B6000E348FDF707FF2146E248FDF703FF70BD7C
:103B7000DA480078002801D0DF4840787047D748FD
:103B80000078002801D0DC4800787047D3480078DE
:103B9000002801D0D84880787047D04800780028A5
:103BA00001D0D64800787047CC490978002901D067
:103BB000D14948707047C9490978002901D0CE49D8
:103BC00008707047C5490978002901D0CA49887032
:103BD0007047C2490978002901D0C8490870704768
:103BE000BE490978002910D010B4BD4984684368E3
:103BF00002688C644B640A64C14943680268806847
:103C00000B61CA60486110BC70477047B3490978BE
:103C100000290DD0B8490A78012A0AD0497801292B
:103C200006D1B74B1A69D9685B698360426001604D
:103C30007047AB4B5A6C196C9B6C8360426001609F
:103C40007047F7B5A5489AB000780C4600287CD09C
:103C500020460C302BC8AC46E5690095256AA7685C
:103C6000AE46666825680A900D951A9C009D0C93D7
:103C70000B9160460E9611951090754613920F9712
:103C800012950AAA99496846FEF719FB06A810AAD8
:103C900097491890FEF713FB03A80DAA954906460D
:103CA000FEF70DFB9448007800287DD069468C48CB
:103CB000139A00F003FA90481496894D13994069BD
:103CC00000F06AFD8F4900F067FD7F21C9050746B6
:103CD00088426ADC03988C4E41000D20490880061A
:103CE00081420CDA049949004908814207DA0599B2
:103CF00049004908814202DA0020707348E003213C
:103D0000149800F06AF916907079002836D0169849
:103D1000E86201461590169800F036FD01461790AE
:103D2000384600F039FD01461490159800F0DBFC90
:103D3000E8621499179800F02FFD296B00F0D3FC6E
:103D400014907F203946C00500E079E000F01CFDAA
:103D5000149900F021FD28636C4A169989186C4A61
:103D6000914209D26B4AE96A914205DB6A4A914263
:103D700002DC6A49884203DD002002E0E86AC8E705
:103D800001207073059A04990398EA63A963686334
:103D90005348139A1899FEF7F9F851481399FDF70B
:103DA00086FF4F48014601E01CE04BE05C312EC924
:103DB0002EC4C26E016F406F22606160484AA060ED
:103DC00011467831906FD26F896822616161E0603D
:103DD0004948103C8078002804D0204621462830ED
:103DE000FDF74AFE444D6878002829D069463D48D1
:103DF000139A00F063F93B48139A1899FEF7C6F836
:103E000038481399FDF753FF3D48274601462831AE
:103E10004EC934374EC7036CC26B816BE364A26436
:103E20006164826C416CC06C62652165A065A87894
:103E3000002805D02146204634315C30FDF71CFEB9
:103E40001DB0F0BD7F27FF0544E710B5234C227855
:103E5000002A11D000290FD000F040FE0146304862
:103E600000F0D7FCFEF78AFA616800200968087044
:103E700060682C490068C16210BD70B5174C21788C
:103E8000002907D0056882684168274B2846FFF75C
:103E90000FFB607070BD114A1178002911D02249C2
:103EA0000B6803604B684360896881605178002229
:103EB000002905D0012939D0022937D0032937D06C
:103EC00002737047002000E000300240C2A507F4F2
:103ED000CDB5E8B5C007001055AA000018040020B1
:103EE000C00B002064040020656E7500500C00209B
:103EF000590C0020620C00202804002048040020F7
:103F0000980400200000C842400C00206666E6C00D
:103F1000010080009A99193F9A99993F6F12833A4C
:103F200000007A449A99993E30130020017370473B
:103F3000032101737047FC490978002901D1002051
:103F4000704730B5F94989B00A4618323CCA009228
:103F50000A4603950294019328323CCA07950694B9
:103F600005930492896B0891694600F09AFB6846B4
:103F700000F083FBC0B209B030BD00217F22016098
:103F8000D20582604160016141618161C16101626C
:103F900041628162C1620163E54B8363C260416338
:103FA000016441648164C16401654165C165016664
:103FB00082654166C16682660167DE4B8167C363C5
:103FC0004267C16780300122016042718171C17115
:103FD0008160027342738173704770B500260D468D
:103FE000002920D0041FE80708D06068014600F0CF
:103FF000D3FB314600F077FB0646241D6D0812D036
:104000006068014600F0C8FB314600F06CFB0646D4
:10401000A068014600F0C0FB314600F064FB0834A4
:1040200006466D1EECD1304616F058FB70BD30B51B
:1040300005465368106891B09268089000200B9074
:1040400009930A9201200A68C007424004924A6814
:10405000424005928A6842400692C868079008AAC2
:104060000CA8FDF7A9FD04AA0CA96846FDF7A4FD5C
:1040700068460421FFF7B1FF01467F20C00500F02C
:10408000C8FB04462146009800F086FB00902146BC
:10409000019800F081FB01902146029800F07CFB22
:1040A00002902146039800F077FB0390029A019951
:1040B0000098AA606960286011B030BDF0B5044670
:1040C0009D480F4687B0C068114600F065FB9B49CC
:1040D00000F062FB7F25ED050646A84274DC3A68D5
:1040E0000D205300B9685B0880067F68834207DAB9
:1040F0007B005B08834203DA4B005B08834202DBF0
:1041000067602260A16003212046FFF766FF014639
:1041100004902F46284600F07CFB0546294620687F
:1041200000F03AFB20602946606800F035FB6060D3
:104130002946A06800F030FB25468035A0606879EC
:1041400000283AD00498E06001460290049800F0FC
:104150001BFB01460190304600F01EFB014600901B
:10416000029800F0C0FAE06002900099019800F017
:1041700013FB216900F0B7FA314600903E463846FD
:1041800000F002FB009900F007FB07462061314672
:10419000029800F0F9FA4000694C4008A0420ADC9D
:1041A0003146049800F0F0FA40004008A04202DCDA
:1041B0006448874204DD002003E0E068C4E703E0D0
:1041C0000120287307B0F0BD2E4688E7F0B50646FB
:1041D000554895B0456809206968C0010F18796E87
:1041E000306800F0D1FA0446B96E706800F0CCFA7D
:1041F0000A90F96EB06800F0C7FA064628680078A1
:1042000000282FD02146084600F0C6FA00900A99EF
:10421000084600F0C1FA31460190084600F0BCFAA9
:1042200002900121204600F032FB069001210A98FD
:1042300000F02DFB07900121304600F028FB08908C
:104240000A99069800F0A8FA03903146069800F003
:10425000A3FA04903146079800F09EFA0F950024C7
:10426000059075E000940A9801907F20C0053146C2
:1042700003900296084600F08FFA01990646084618
:1042800000F08AFA00990446084600F085FA2146B3
:1042900000F029FA314600F026FA00240F95049028
:1042A00003E00420001B002828DDA10068460E184A
:1042B00013910421091BCFB2002520462821484331
:1042C0001290139802CE6A46105800F065FA0F99C2
:1042D0004A6812995118621993004F2212019A18D4
:1042E0000A921091895800F0FEF96D1C0A9A1099F3
:1042F0007F1E3F0688503F0EE3D16F46A00038581E
:10430000049900F049FA0F9922464D6828214A4342
:1043100049015618A95900F0E6F9641CE4B2A85105
:10432000042CBED34DE000001804002074AC06102D
:10433000F4FD343FF4FD34BF280400200000C842DF
:10434000CDCCCC3DCDCC4C3D0920001B002828DD38
:10435000A10068460E1813910921091BCFB2002550
:104360002046282148431290139A02CE684680586E
:1043700000F012FA0F99129A49688A1861198B0095
:104380004F210901591810920D91515800F0ABF9C5
:104390006D1C109A0D997F1E3F0650503F0EE3D1C1
:1043A000854F0F98A200466828206043C5196946CA
:1043B0007059895800F097F9641CE4B27051092CC7
:1043C000C2D37E48456813206C688001201881891B
:1043D00064296ED10E26865F0C20464309213046A3
:1043E000C9011C3067182058796E00F0CDF90B9088
:1043F000304620302058B96E00F0C6F90A902436B5
:10440000A059F96E00F0C0F9044628680078002829
:104410002FD00B99084600F0BFF900900A99084682
:1044200000F0BAF921460190084600F0B5F9029073
:1044300001210B9800F02BFA069001210A9800F058
:1044400026FA07900121204600F021FA08900A99E7
:10445000069800F0A1F903902146069800F09CF917
:1044600004902146079800F097F90F9500240590D5
:1044700067E00B9800900A9801907F20C0052146C4
:1044800003900294084600F087F901990646084611
:1044900000F082F900990446084600F07DF92146B3
:1044A00000F021F9314600F01EF900240F95049028
:1044B00004E040E00420001B002829DDA10068463C
:1044C0000E1813910421091BCFB200252046282184
:1044D00048431290139A02CE6846805800F05CF967
:1044E0000F99129A49688918621993004F22120194
:1044F0009A1810920C91895800F04AF96D1C109A84
:104500000C997F1E3F0688503F0EE3D105273F02DE
:10451000A20068468058049900F03EF90F994E6851
:1045200028216143CD19715900F032F9641CE4B2BD
:104530007051042CBED315B0F0BD0920001B00281B
:1045400028DDA10068460E1813910921091BCFB27E
:1045500000252046282148431290139A02CE68462F
:10456000805800F019F90F994A6812995218611988
:104570008B004F210901591810920D91515800F0EC
:1045800007F96D1C109A0D997F1E3F0650503F0E83
:10459000E3D1094F0F98A100466828206043C51950
:1045A0006A467059515800F0EFF8641CE4B270513B
:1045B000092CC2D315B0F0BD14050000180400206A
:1045C00030B50B46014600202022012409E00D46AB
:1045D000D5409D4205D31D469540491B2546954033
:1045E00040191546521E002DF1DC30BD70B5002477
:1045F0002546002801DA01244042002901DA01257C
:104600004942FFF7DDFFAC4200D04042002C00D011
:10461000494270BD10B5441A0346944209D283182A
:10462000891803E0491E0C785B1E1C70521EF9D2DB
:1046300010BD0C460443A40703D009E010C9121FA3
:1046400010C3042AFAD203E00C781C70491C5B1CCE
:10465000521EF9D210BDD2B201E00270401C491EB8
:10466000FBD270470022F6E710B513460A4604460F
:104670001946FFF7F0FF204610BD421C0178401C90
:104680000029FBD1801A704730B50446002003464C
:1046900000E05B1C934203D2E05CCD5C401BF8D091
:1046A00030BD03460A780270401C491C002AF9D12B
:1046B0001846704730B505460020034600E05B1CF5
:1046C000934205D2EC5CC85C201A01D1002CF6D1D3
:1046D00030BD0321001D401E037812021A43491EFB
:1046E000F9D510467047F8B502464A40D40F42004B
:1046F0004B0052085B089A4202D202460846114615
:104700004A0023D0C30D4A00DDB2120EAD1A202D8F
:1047100035DA49020126490AF6058A19002C00D02B
:10472000524220214F1B1146B9402A411018C20D98
:104730009A4221D0002C17D0012D08DCDA05801A0E
:10474000D20F8019D207DBB200F000FBF8BDDA050A
:10475000801A012340001B06C01880185A42801896
:10476000CA0F1043490007E04908C2071143DA05A0
:10477000801A80194008801800F0E0FAF8BD610046
:104780000122511A001BF7E70122D2075140AAE784
:104790000122D2075040A6E7024670B54A40D30F27
:1047A000DB0740002DD04A002AD0010E140E000273
:1047B00012020919400A520A8418E50104465443BA
:1047C000000A120A2E045043A4194219200CC543B2
:1047D000AA18120C0125AD03521C521912047F397C
:1047E000240400D0521C104301D44000491EC2B220
:1047F0000C06C0092018401C4008802A02D003E0A3
:10480000002070BD40084000002900DA0020184355
:1048100070BD70B502464A40D50F40004A00ED0712
:1048200040085208002814D0002A12D0C40DD30D1D
:1048300041020120C0055202490A520AE41A09182D
:1048400012187D34914201D3641C00E04900002C11
:1048500001DA002070BD0023914201D3891A03437D
:10486000400849000028F7D100290AD0914202D11E
:104870000121C90705E0914201D2012101E0012196
:10488000C943E005C018401900F058FA70BD420055
:1048900005D04200120E52428A4201DB00207047CE
:1048A000C905081870470000F0B50746084658408B
:1048B00087B0C00F049048000E46590040084908D0
:1048C000BC1A884105D2384631461E4617460B466B
:1048D00002465800400810434CD0300D039040056C
:1048E0005900400D490D0590401A0290402872DA97
:1048F00018030121000B0905084301900498009258
:10490000002805D001995242002088410092019070
:10491000029840210A1A0199009800F0DBF9054637
:104920000C466B4607CB00F0F6F9C0197141039AAB
:104930000E0D0023D71756401A467A40164344D02E
:10494000049A002A2DD0029A012A039A15DC120536
:10495000C01A914101263605001C7141D20F059EF7
:10496000D2070093019202962A46234600F07FFA6E
:1049700007B0F0BD38463146FAE71605224A0F4621
:10498000B218C01AB74101210905001C4F41001897
:104990007F41114618187941E20F10436D196441A7
:1049A00013E0E2076D0815436408C2071443039A35
:1049B00001261205C01A91413605001C7141CE072F
:1049C000400830434908C01851412A46234600F0A8
:1049D00041FACDE7FFE7049801224000C117121AFF
:1049E00000238B4104983146C417381AA141EEE7E1
:1049F00030B40124E407634030BC55E730B40124EF
:104A0000E407614030BC4FE70000E0FFF0B51FB4A1
:104A100088B00B990998002448400999C00F4900B3
:104A200049080991C0070B990090490049080B916A
:104A300009990898A64608431CD00B990A98084380
:104A400018D0099801244000420D4800410D0998F2
:104A500024050003000B204309900B980003000B72
:104A600020430B9050181C49401800220190144616
:104A7000104605E0002001460DB0F0BD032801DA24
:104A8000034600E003239C46C11A0AAE0AE05F0019
:104A900008ADED5B4F00F75B7D430027AA187C4112
:104AA000491C5B1E6145F2DD410004AB5A522104F2
:104AB000120C0A43240C401C0828DFDB01980290EA
:104AC0000099704601910090059B049A07990698F9
:104AD00000F0CDF9D0E700000DFCFFFFC217C10FB9
:104AE000504010B54018CA079623002100F02EF957
:104AF00010BD10B500229623114600F027F910BD15
:104B00000EB5C217C10F5040CA0740180021054B0F
:104B10000293019200910A460B4600F0A8F903B0F7
:104B200000BD0000330400000EB5054902910021CC
:104B300000910A460B46019100F099F903B000BDBF
:104B400033040000C20F410040020123400ADB058C
:104B5000D207090EC0187F2901DA00207047962974
:104B600003DC9623591AC84001E096398840002A90
:104B7000F4D040427047410040020122400AD20571
:104B8000090E80187F2901DA00207047962903DC7E
:104B90009622511AC84070479639884070470000E5
:104BA00070B5CD0F4A0009030123090B1B051943FA
:104BB0000B4BED070024520D9A4201DA002070BD24
:104BC000074B34339A4203DC9A1A00F093F802E060
:104BD0000449511888402C43F1D0404270BD000078
:104BE000FF030000CDFBFFFF4A0009030123090B6F
:104BF0001B051943094B10B5520D9A4201DA0020EA
:104C000010BD064B34339A4203DC9A1A00F072F856
:104C100010BD03495118884010BD0000FF0300007B
:104C2000CDFBFFFFC20FD207400040080BD0C10DE3
:104C30000723DB01C91840020905400A1143C208D5
:104C400040071143704700200146704710B5002906
:104C500004DB0124E40740428C412146002B04DBA5
:104C60001C460123DB075242A341994200D19042E6
:104C700010BD0000CB0FDB07490010B54908024604
:104C80000A4307D00A0D07240903E401090B121B8C
:104C9000002A01DC002010BDC900440F0C43C100F4
:104CA000E018D205801800F049F810BD0122D207A3
:104CB000002800DB101A002900DB511A81427047DE
:104CC0000122D207002800DB101A002900DB511A4C
:104CD0008842704710B5202A04DB0146203A9140F3
:104CE000002010BD914020239C1A0346E340194345
:104CF000904010BD10B5202A04DB0846203AD04071
:104D0000002110BD0B46D340D0402024A21A914070
:104D10000843194610BD10B5202A06DBCB170846FC
:104D2000203A1041C1170B4306E00B461341D04017
:104D30002024A21A91400843194610BD002904DA24
:104D4000401C490001D140084000704770B4002465
:104D5000050C05D11024000402D1002921D0112412
:104D6000050E01D100020834050F01D10001241DF8
:104D7000850F01D18000A41C002801DB4000641CC9
:104D8000002908D020252E1B0D46F540A14000D05B
:104D900001212943084301061B1B000ADB1D02D524
:104DA000002070BC7047DB05181880180029F8DA5D
:104DB000401C4900F5D170BC40084000704770B5F8
:104DC000002801DC002070BD410040020126400A9D
:104DD000F605090E8019CA0701D14000491E4D1081
:104DE000002211463F353346CB409B18D4188442ED
:104DF00001D8001B1A464000491C1729F3DD510059
:104E0000814202D20021C94300E00021E805801858
:104E1000FFF794FF70BD10B541000DD04100090EA1
:104E2000962909DC7E290ADC07DB410205D0C00F88
:104E30007F21C007C905401810BD002010BD962273
:104E4000541A20210A1B01469140E040FFF776FFEB
:104E5000A04010BD10B5002B08DA0024401C6141B1
:104E600092185B411A4301D14008400010BDF0B5D3
:104E70001FB482B005460C0003D008460DF032FC8A
:104E800002E00DF02FFC203002460090214628461B
:104E9000FFF720FF049B059A04460F461843114371
:104EA000084314D0184610431BD0009840210A1A1A
:104EB00018460599FFF71EFF05460E46009A05990C
:104EC0000498FFF707FF084305D0012004E02046BF
:104ED000394607B0F0BD0020C11705430E432C43EF
:104EE000374300990E986305401A7905E40A0022B9
:104EF0000C43FD0A0A3002D500200146E9E701050E
:104F0000101969410C9C0D9D00196941FFF7A2FF22
:104F1000DFE70000064C0125064E05E0E36807CCFC
:104F20002B430C3C98471034B442F7D3FCF71CFDDC
:104F300098AE061028AF061070B58C180578401C86
:104F40006B075B0F01D10378401C2A1106D1027850
:104F5000401C03E006780E70401C491C5B1EF9D112
:104F60002B0705D40023521E0DD40B70491CFAE701
:104F70000378401CCB1A921C03E01D780D70491C6D
:104F80005B1C521EF9D5A142D8D3002070BD8121EF
:104F9000C90580220128088802D090430880704704
:104FA0001043FBE78121C90502220128088806D0A9
:104FB00040231843088008889043088070471043B6
:104FC000FBE78121C905012802D0088810220BE0E7
:104FD00048684002088802D5FF22013204E004221A
:104FE00010430880088801221043088070470000A1
:104FF00010B500230222012100F006F80149FFF755
:10500000CBFB10BD1F858B40F8B581250E46ED0505
:1050100069681F46490302D54724240600E0204C56
:10502000FFF75CFD009068680006800F012803D040
:1050300068680006800F05D16868400301D5194CE7
:1050400000E0194C7F25ED053846FFF752FD294653
:10505000FFF749FBFFF7E6FD05460F460098022ED5
:10506000214611D0FFF7D5FB1049FFF795FBFFF75D
:10507000D9FD0F4A0F4BFFF7C1FC2A463B46FFF70D
:10508000C5FCFFF7F7FDF8BDFFF7C3FB0749FFF7C6
:1050900083FBFFF7C7FD064A064BFFF705FCECE76D
:1050A00000720A4700031547002C21479A991940BE
:1050B000333333333333E33FF8B504460121080279
:1050C0000BF090FE012108040BF08CFE002000F094
:1050D0008CF83C4E0021304602F0DEFB0020FFF74A
:1050E00070FF01253848EF050760042002F0D0FB6F
:1050F000022002F0CDFB00F071F8304602F0D6FB42
:105100000021012002F05EFC0120FFF74BFF01208F
:10511000FFF73DFF002C47D0002202212B48052C31
:1051200043D00F2C40D1144602700F2242700171FF
:10513000C4700821817000F077F826482449016086
:10514000254984604160A0210461C16080214161E2
:10515000490081618900C16120210162C901846225
:1051600041620146304602F00FFC01220621304622
:1051700002F0E2FB0121084602F024FC134917204B
:10518000C91E08704D708D70084608F03DFE0E482F
:10519000803807600120FFF714FF0121304602F03C
:1051A0007BFB012000F021F8F8BD0570052343705A
:1051B0000171C1708270054800F036F80120FFF7D8
:1051C00000FFF8BD080000A080E100E0AF03002070
:1051D00016008040400A0020400800208120C005C1
:1051E0000188082211430180704781210122C905ED
:1051F00052020128088802D090430880704710436B
:10520000FBE78121C905097C014201D001207047DB
:10521000002070478120C0054168490301D4C08A3D
:105220007047808A704770478121C9054A68C0234A
:105230009A4303789B071B0E1A434A604378012266
:1052400092050F2B4B6823D093434B604A680E2383
:105250009A4343785B071B0F1A434A604A6830231E
:105260009A4303799B079B0E1A434A608278012375
:10527000DB02082A4A680ED09A434A604A68032330
:10528000C0781B0280079A43800D02434A60704732
:1052900013434B60E2E71A43EFE77FB50546986892
:1052A000012202739A681C4651739868022202A96F
:1052B0000E3008F02BFEA16805200D74E0807FBD44
:1052C00070B5064608881D460C46001D81B213467F
:1052D0000222304608F082FF21882B46891C21805B
:1052E000091D89B20222304608F078FF2088801C10
:1052F000208070BDFEB500240E462746056845E0B7
:1053000028680290A968022230460D3108F0FEFD9F
:105310003088B84209D087B2384605F003F8014614
:1053200001AA384605F07AFE019CA9680222684667
:105330000F3108F0EBFDE888401F81B22220005DAC
:10534000002806D001280BD0002811D0012814D045
:105350001BE0E08B6A461288401E904206D307E0AD
:10536000208C6A461288401E904206D20720FEBD5D
:10537000684600880818E18B03E068460088081832
:10538000218C884201D90D20FEBD029D002DB7D190
:1053900000203080FEBD00007FB502460020140AC8
:1053A000154ED5B2022918D0032914D110F0B0FA45
:1053B0006946087110F0ACFA000A6946487100208D
:1053C0008871CD710C7201A80523009000227189AB
:1053D000B0880EF015F904B070BD10F099FA694666
:1053E000087310F095FA000A694648738D73CC7300
:1053F00003A804230090E9E714030020F8B516463B
:105400000C46074610F084FA254D287010F080FAFB
:10541000000A68703878A87038880A210012E8708D
:1054200038792871B88800126871387AA87138897B
:105430000012E8712068FFF7D9F8074620600A21BA
:105440006068FFF7D3F860600A21A068FFF7CEF824
:10545000A0602F7220881423001268722079A8722D
:10546000A08800220012E872207A28732089001296
:1054700068733078A87330880012E8733079287424
:10548000B08800126874307AA87430890012E87409
:1054900004480095018980880EF0B2F8F8BD00003C
:1054A000B805002014030020FFB5C8880025401E61
:1054B00083B00E4687B2012427E0B068022208308C
:1054C00001196846091D08F021FD6846008804F0AE
:1054D00029FF01001DD068460A8D0088824212D043
:1054E00001AA05F09BFD00280DD101992620405C02
:1054F000400708D506986A00101802221C3108F0EF
:1055000005FD6D1CADB2A41CA4B2BC42D5D30C9851
:10551000058007B0F0BDFFB5074683B000200090BE
:105520000D9804F0FFFE054606980C300190002D02
:1055300026D00837BD4223D0288D0E9988421FD827
:105540000D99884213D30E99884210D82946022219
:105550002A31019808F0DAFC10220C99069808F01C
:10556000D1FC002809D0298D0E98814208D02E4602
:105570002C6A2036B442DDD03EE00598002101803F
:1055800007B0F0BDA08B0D99884234D30E998842A4
:1055900034D8204620300290C078012808D0204618
:1055A000083010220C9908F0ADFC002808D022E049
:1055B000214602220831019808F0A8FC0698F0E77D
:1055C00002988079400716D50098002801D1E08B19
:1055D0000090E18B814211D10598022200884100A0
:1055E0000498081821461C3108F090FC059805998C
:1055F0000088401C08802468B442C3D12D6899E714
:10560000064800210268052040021018017341730A
:1056100003218173C173002070470000F40400204F
:1056200070B50D4D044611212868C9014018902617
:1056300001231A46C06F31460DF08CFC010003D0E7
:1056400030464C600DF072FC0520296840020918B4
:10565000087B401C087370BDF404002010B504469C
:1056600000202082A074A168A161616120602046B1
:1056700007F0DCFC452801D0412010BDA0880321A3
:1056800010F07EF9044610F0C5FE002812D072B664
:105690000948012201684F20400109184879A240B9
:1056A0001043487162B6002013F090FD002801D02D
:1056B0000EF004FD002010BDF404002070B5C17C84
:1056C0000E4D4906490EC174044611212868C901CE
:1056D0004018902601230022C06F31460DF03AFC9D
:1056E000010003D030464C600DF020FC05202968F5
:1056F00040020918487B401C487370BDF404002028
:10570000F0B58BB01B2669460E76C5204876D527A6
:105710008F76A520C87602250D7700244C77B4201B
:1057200088779A20C877E12008A90870112048706E
:105730000F208870CC70102206A92348099408F025
:10574000E5FB224800902248012243781E490220AE
:105750000DF0E9FD002833D169460E76C520487664
:105760008F76A520C8760D774C7736208877AC20C9
:10577000C877E12008A90870112048700F208870B0
:10578000CC700D714C718C710F48CC71102206A930
:10579000103008F0BBFB0D4B01229B1C1021052093
:1057A00002AD0FC51420034600900848064A019434
:1057B000163810320221C08A0DF096FD002800D064
:1057C00047200BB0F0BD0000CC0500202A030020CC
:1057D000A9030020F0B58BB01B276A461776C524B5
:1057E0005476D5259576A526D6760220107700200A
:1057F0005077B42191779A21D177E12108AA1170CD
:10580000112151700E219170D0700990102206A9BB
:105810003E4808F07BFB3E4800903E4801228378DA
:105820003A4902200DF07FFD00286CD11B2168460B
:105830000176C5214176D5218176A521C176022543
:1058400005770024447736218177AC21C177E126A2
:1058500008A80670112141700E218170C4700127C3
:10586000077144718471C4712848102206A9103050
:1058700008F04CFB26491020891C0522049702924F
:1058800005910390224F1E20204A1A3F0194009058
:10589000142310320221788B0DF026FD002832D11E
:1058A0001B2069460876C5204876D5208876A52035
:1058B000C8760D774C7736208877AC20C87708A952
:1058C0000E70112048700E208870CC700D714C71D4
:1058D0008C710E48CC71102206A9103008F016FB0E
:1058E0003B461E3301221021042002AD0FC51220B9
:1058F000064A01940090142310320221788B0DF097
:10590000F3FC002800D047200BB0F0BDCC050020F0
:105910002E030020A9030020F0B58BB01B206A469F
:105920001076C5205076D5209076A520D076022717
:10593000177700245477B42090779A20D077E1200D
:1059400008AA10701120507001269670D470102291
:1059500006A9FE48099408F0D9FAFD480090FD48D0
:1059600001220378F94902200DF0DDFC1B206A4674
:105970001076C5205076D5209076A520D076177762
:10598000547736209077AC20D077E12008AA1070A9
:10599000112050709670D4700994917904200143BD
:1059A000EB480822001F114300781025294308AA5C
:1059B0009171E7490A30091F0870E4482A4606A990
:1059C000103008F0A3FAE2490420891C02900591E6
:1059D00012200090881F039504940194DB4A0378F9
:1059E0001032022180880DF07FFC1B206A46107661
:1059F000C5205076D5209076A520D076177754779D
:105A000036209077AC20D077E12008AA10701120C2
:105A100050709670D47014715471E0209071CB481E
:105A2000D471102206A9103008F070FAC849042079
:105A30000290091D0095C648C44A05910395049437
:105A40000194001F14231032022180880DF04CFCB9
:105A50001B206A461076C5205076D5209076A5206A
:105A6000D0761777547736209077AC20D077E12026
:105A700008AA1070112050709670D4701471042010
:105A800050719471B148D471102206A9103008F0F9
:105A90003DFAAF490420891D029005911220009023
:105AA000AB48AA4A039504940194001F05231032C1
:105AB000022180880DF018FC1B206A461076C52054
:105AC0005076D5209076A520D0761777547736205B
:105AD0009077AC20D077E12008AA10701120507088
:105AE0009670D4701471547194719848D7711022C3
:105AF00006A9103008F00AFA9549042008310290EE
:105B00000591122000909248904A039504940194C4
:105B1000001F04231032022180880DF0E5FB1B20BA
:105B20006A461076C5205076D5209076A520D0768E
:105B30001777547736209077AC20D077E12008AAE9
:105B40001070112050709670D4701471547194714B
:105B50002020D0717D48102206A9103008F0D6F917
:105B60007B4904200A310290059112200090784868
:105B7000764A039504940194001F032310320221F6
:105B800080880DF0B1FB1B206A461076C520507648
:105B9000D5209076A520D076177754773620907749
:105BA000AC20D077E12008AA1070112050709670B8
:105BB000D4701471547197716448D471102206A97D
:105BC000103008F0A3F9624904200C3102900591CD
:105BD000122000905E485D4A039504940194001FD2
:105BE00009231032022180880DF07EFB1B206A46BB
:105BF0001076C5205076D5209076A520D0761777E0
:105C0000547736209077AC20D077E12008AA107026
:105C1000112050709670D4701471567194714B4865
:105C2000D471102206A9103008F070F948490420F8
:105C300002900E3100954648444A0591039504941C
:105C40000194001F08231032022180880DF04CFBC4
:105C50001B206A461076C5205076D5209076A52068
:105C6000D0761777547736209077AC20D077E12024
:105C700008AA1070112050709670D47040201071D6
:105C8000547194713148D471102206A9103008F073
:105C90003DF904202E4903460290103100952C480E
:105CA0002A4A0591039504940194001F10320221A1
:105CB00080880DF019FB1B206A461076C5205076AF
:105CC000D5209076A520D076177754773620907718
:105CD000AC20D077E12008AA107011205070967087
:105CE000D4701471547194710820D0711748102227
:105CF00006A9103008F00AF9154800952630134A15
:105D0000059002940395049401942A3814231032C8
:105D1000022180880DF0E8FA1B206A461076C52023
:105D20005076D5209076A520D076177754773620F8
:105D30009077AC20D077E12008AA10701120507025
:105D40009670D47014715471947105E0CC050020E4
:105D500018030020A90300204020D071102206A9BA
:105D6000134808F0D3F81348009505900294039562
:105D7000049401942C3806230D4A022180880DF0EA
:105D8000B3FA04460B482C3801468988018528302F
:105D900001F002FA07497D20800108390880CE70A1
:105DA0008E70084601F0C0F920460BB0F0BD00002F
:105DB000DC0500204003002010B504460AF05BFB20
:105DC000002801D0002010BD204610BDF8B51646B1
:105DD0000D46074600240AF067F9002806D032462F
:105DE0002946384601F0CAFB044604E020356879AC
:105DF000002802D00E242046F8BD2879C10701D121
:105E0000012E09D0810701D4022E03D04007F2D41D
:105E1000042EF0D10324EEE70224ECE7F7B5B94BEA
:105E20000C46D98BB84A891C884208D12078202199
:105E30000BE0002802D1106888431060FEBD998BEA
:105E40008D1CA84206D1207810210128F1D11068BC
:105E50000843F2E7491C88420AD12046029901F022
:105E6000C1FD0028EAD0204602990BF06BF8FEBD78
:105E7000198900260127A54D891C884203D0598A1B
:105E8000891C884228D12078012813D00028EED11F
:105E900006F084F8EE702E70AE700021084612F005
:105EA000ECFB0021084611F0EEFF0221002011F06A
:105EB00003FEFEBD0321002012F0DFFB03210020C2
:105EC00011F0E1FF0021084611F0F6FD012006F077
:105ED00065F8EF702F70BAE0D988891C88422ED1FE
:105EE00020788B4C012814D00028E2D1E0780028DB
:105EF00003D00021084611F03DFEA078002803D011
:105F00000121002005F09AFD68780028D1D06E703C
:105F1000FEBDE078002803D01421002011F02AFEF5
:105F2000A078002806D00021084605F087FD002053
:105F300005F09EFA68780128EAD06F70FEBD198AD4
:105F4000891C88420BD12078012803D00028F5D184
:105F50002E7195E00520FFF7AFF82F71FEBDD989AE
:105F6000891C884208D12078012803D00028F5D167
:105F70006E71FEBD6F71FEBD998A891C884229D160
:105F80002078012814D00028F5D1AE7106F006F86B
:105F90000021084612F071FB0021084611F073FF42
:105FA0000221002011F088FD0020FDF704FEFEBD57
:105FB0000321002012F061FB0321002011F063FF98
:105FC0000021084611F078FD012005F0E7FFAF71D0
:105FD0000120EAE75989891C88422FD128780028B6
:105FE000E5D1E8780028E2D1207801246403012873
:105FF0000DD00028DBD10021084612F03EFB6E7266
:106000000021204603F0E2FB01F088FFFEBD0321E2
:10601000002012F032FB09F04BFA02F031FA0121B4
:10602000204603F0D3FB01227721900201F000FC0F
:1060300003210020FFF7B0F96F72FEBD9989891C1A
:1060400088420AD12078012803D00028F5D1AE700B
:10605000FEBDAF702F480670FEBD2A4A2832518817
:10606000891C814213D12246029900F099FE2078C2
:10607000012809D00028EFD1EE710520FFF71CF8A8
:106080000020FFF719F8FEBDEF710F20F9E79188A6
:10609000891C81420CD12246029900F081FE2078B1
:1060A000012803D00028EED12E72FEBD2F72FEBD56
:1060B000198B1D468A1C90421CD12078012803D0E0
:1060C000002800D123E7FEBD134C2078002801D022
:1060D000642200E00022FF21481C01F0A9FB207887
:1060E000002801D0642200E00022FF21402001F0BE
:1060F0009FFB22E7491C8842E5D12046029901F026
:10610000A3FAFEBD1403002064030020340A00201B
:10611000920300204A0300204F0300207EB504466E
:1061200016460D46684605F06BF8684603782370FE
:10613000407828706846807830707EBD70B5002148
:106140000C4A03E0535C491C5918C9B2535C002B3C
:10615000F8D1CE1C02243525202E04D254545118D7
:106160004D708870CB7004490C704D708870CB7086
:1061700070BD00005C050020FC02002010B50AF094
:1061800069FF1E4C4721206849014118097B0029FD
:1061900009D1A0300079C00729D00FF013FE01F01B
:1061A00069FB02F0BFF900F0CDFC206801464031E8
:1061B0000A78C9798A4319D13E21095C002915D191
:1061C0000F490A88120711D50922D2061269497AA5
:1061D000836AC900591809231B02C018806D801AF0
:1061E00000020012814201DA0DF0BCFE10BD03F086
:1061F00081F904F0F1F809F01DFDD0E7F404002066
:10620000C000002010B5044600F014FF002809D09B
:106210005021204600F0FCFD03494028C87201D1FE
:106220000120487110BD000048030020F3B5FFB005
:1062300090B00446684604F0E3FFFE48007A5290AE
:10624000FD4880880790FD4800685190FC4E002072
:1062500081008B191B68401C53AAC0B253500828F8
:10626000F6D3F848006A5090F748006A4F90012032
:10627000800701684E9141684D9181684C91C168D9
:106280004B9101694A914169499181694891C1697C
:106290000491C16A4791016B4691406B4490EB4871
:1062A000008B4390E948203040684590E848C16839
:1062B0004291017F4191E649203189884091E4492A
:1062C0002031097A3F91E2492031097B3E91006BF0
:1062D0003D90DF482030007D3C90DD482030008B31
:1062E0003B90DB484030017A3A91017C3991017D45
:1062F0003891017E3791007F3690D5486030007824
:106300003590D4480168349141683391017C3291D1
:10631000017D3191CF4920310A7930920A892F923B
:10632000C06A2E90088A00222D90CB4811050818CB
:10633000036891007BAD6B5045687DAB5D50858BEC
:106340007FAB5D50058C81AB5D50858C83AB5D5020
:10635000058D85AB5D50C56A87AB5D504C231D5ADA
:1063600089AB5D50056D8BAB5D50836D521C8DA864
:10637000D2B24350022AD8D30B20000700682C90D9
:10638000B6484168299181682891018A2791818ABC
:10639000269181692591017F2491B0492031098A94
:1063A0002391416B2291816B2191C06B2090AB486E
:1063B000403001681F9141681E9180681D90A84877
:1063C00081881C9101891B91017C1A91017D199191
:1063D000018B1891007F1790A2488188169101893E
:1063E0001591017C1491017D1391018B1291007F15
:1063F00011909D4801692B9140692A909B48016842
:106400001091007A0F909A48006800282ED0002042
:10641000039000201421974A414389184D68820057
:1064200063AB9D500D685BAB9D508D686BAB9D5011
:10643000CB68401C73A9C0B28B500828EAD38120D6
:10644000C00541680D91017B0C91418B0A91018B34
:106450000B91416A0991816A089100880E9003208E
:10646000800780680690032C02D008E08248CFE7BE
:106470000920C006416803221207114341607F4989
:10648000002009687E4D503905917E4F296004C96E
:106490008300401CFA50C0B229601428F7D3694623
:1064A0004878897800010843122804D376490020EF
:1064B000086009F087FA0920C0064068734908603F
:1064C0005C4908790978012292071268520A4A4009
:1064D00090437DD101200AF0FDFCFBF7F1F900208B
:1064E0000AF0F8FC6A480078002872D06948012157
:1064F000018300218181016108460599296081009D
:106500007A58296804C1401CC0B229601428F6D307
:10651000494907988880494951980860002053AA42
:106520008100535889190B60401CC0B20828F7D36A
:1065300044485099016244484F99016201239B07E6
:106540004E9818604D9858604C9898604B98D86059
:1065500048989861499858614A98186104989862D7
:106560000498D8614798D86246981863449858634D
:106570003649439808833549459820314860344965
:106580004298C860419808773148409A203082800C
:106590003F9A02723E9A02733D9A0A633C990175D2
:1065A0003B9901832A483A99403001723999017424
:1065B00038990175379901763699017724483599CC
:1065C000603001702348349901603399416001E0E3
:1065D00038E1E6E032990174319901751D49309A2C
:1065E00020310A712F9A0A812E9AC2622D98088250
:1065F00000227BAD18481105081891006E580660FE
:106600007DAE765846607FAE765A868381AE765AE6
:10661000068483AE765A868485AE765A068587AE22
:106620007658C66289AE765A4C273E528BAE765863
:10663000066531E0000020400000104000E100E06D
:1066400000E400E000ED00E0000090402000004089
:1066500000003040000040400000A0400000F0403A
:106660000000D0400000E04000E000E0000070408A
:10667000000C7040080000A051E5CC1A001805106D
:10668000CC0200200C05002014000020180000207F
:106690000C000020000010488DAE71588165521C1E
:1066A000D2B2022AA6D30B2109072C980860894888
:1066B0002A994161002181612B99016186482999BC
:1066C00041602899816027990182269981822599C4
:1066D00081612499017722994163219981632099ED
:1066E000C1637D481F99403001601E9941601D992A
:1066F0008160794823992030018278481C998180F3
:106700001B9901811A99017419990175744A189994
:106710001140018317990177724816998180159964
:106720000181149901741399017512991140018323
:10673000119901776C48109901600F9901726B49AA
:10674000039808606A4F00205BAD14214143C919CA
:10675000820063AEB6584E60AE580E606BAEB6584F
:106760008E6073AEB258CA60401CC0B20828ECD329
:106770008120C0050D9941600C9901730A994183EC
:106780000B99018309994162089981620E990180F0
:1067900003218907069888605648007A002854D05B
:1067A00083E0554A1068400637D411685348544B6B
:1067B00000685D6A4140534E3668B5421AD112688E
:1067C000824203D050480068084213D14F4801214B
:1067D0000068090702465D680A400D40AA4209D1D7
:1067E00089105A6808400A40904216D0394800691A
:1067F000800712D50921C9060869454A0309D81C32
:10680000904204D80A6912098242FBD305E041484C
:1068100018180A6912098242FBD1694648788978BA
:1068200000010843122805D3012009F0CBF83B48AA
:1068300039490160032C05D10921C906486822079E
:10684000904348607FB012B0F0BD354801890929F6
:106850002BD30189812928D89099002925D0028934
:106860000921914302D1D96989051BD402891121DB
:10687000914302D1D969490514D402892121914358
:1068800002D1D96909050DD402894121914302D170
:10689000D969C90406D401898120884305D1D86902
:1068A000800402D5144801210160032C05D1092080
:1068B000C006426821078A4342601A49529808720A
:1068C000032C04D00021002001F07EFABAE7012158
:1068D000F9E7000000E000E00000F0400000D040D8
:1068E000BFFF00000000E04000007040000C70405E
:1068F000080000A00000904000E200E0F802002044
:1069000000ED00E0F402002000E100E0F0020020D1
:10691000FFFF0F000400F0FFCCBCECFC14000020D3
:106920000000104800002040F7B50746EFF3108440
:1069300072B600261448067000F066F9054638461F
:10694000FFF73AFAB84200D33846854200D22846CB
:106950000E4B81005A58521C5A50002809D0012869
:106960000BD00B49029A0A70019A0A710199FFF73C
:106970005DFC84F310880020FEBD0648017A067293
:1069800030BF0172F5E700000C000020FC0400207D
:10699000000020400000704010B5837F01220024D9
:1069A00092024168082B03D94224914202D310E09D
:1069B000914201D242240CE001463422064807F0FD
:1069C000A5FA00F07FF8002801DA482401E00BF076
:1069D000BFFD204610BD0000641300203EB5174DDA
:1069E00015482968827F0846A0310A730024603068
:1069F000047644768476E122C276802202770222EF
:106A00004277302008704C7002AA01A96846FFF74F
:106A100085FB68460078A22201016846007A891C3D
:106A200000020143684600790003014328681152BF
:106A3000A03004713EBD000064130020F404002067
:106A400070B50AF0EBFA06F01BFA07F039FBFEF717
:106A5000D7FD05F067FC184C18492068184D401800
:106A6000811001202A68C0021018C1666168890877
:106A70000167A1688908416709F0A2F81D2029680B
:106A80008001228B08180287628B4287A28B428684
:106A9000628C82862046203002783B204001081814
:106AA00082750021017002F09DFB04F0A7FC0DF03F
:106AB000DDFF01F0BDFD70BD641300200000FCEFA0
:106AC000F404002070B50025ED430EF099FE012876
:106AD0002ED0002318490322888BFF24401E104328
:106AE0008A7F4D3462438218088B28246043121831
:106AF000488B3024604312180846203040782C24FC
:106B0000604310180D4A181884184869A0420DD126
:106B10000B4884420AD90D690EF072FEC1B22846B4
:106B200001F0B4FA01F0E2FB401B251A284670BDC3
:106B3000FF23B533CEE700006413002039190000AD
:106B4000580A0000F8B52C4F3C68206E5C34401C9D
:106B5000002814D0002529480023C07B00283ED0FF
:106B60000926F6062648002D1CD000210A460B46B1
:106B70004169521C994204D1002902D004E0012548
:106B8000E9E7204B9A42F2D32160006960603069E6
:106B9000A1680002090E000A09060143A16000F085
:106BA0008DF81DE03169A2680902090A150E08D0A6
:106BB000018BC90712D04169216000696060E372EE
:106BC00010E0881A00027D2300121B03984205DDA5
:106BD000100E00060843A06000F070F8F8BD636076
:106BE000002DFBD003CC12F0D5F9FA2011F0AEFD48
:106BF00039688862F8BD0000F40400208413002086
:106C00000000104888130000F8B5294D00202968BD
:106C10000A4640321378D279934347D14A6E120E16
:106C200044D13E22525C002A40D1431E21488D6A45
:106C3000467A1A460024F600AD190926F606376989
:106C400000887D1907070120002F06DAF314CB18FE
:106C50009C6D631B1B021B1228D407273F02C91916
:106C60000969CF0103D54A1B120212121ED4012555
:106C70002D07002B06DA002A0ADA75600E488560B7
:106C800003200AE01120000604437460002A03DB9D
:106C90002943084609F0ECFF022005490968403104
:106CA0004A78002A02D0002048700320F8BD000076
:106CB000F4040020C00000204000004804490020E7
:106CC00008610448012100686030C171704700000C
:106CD00000001048F404002010B507F029FE10BD94
:106CE00070B5244900230868024640325376137673
:106CF0004F225201821853710F22203082750522D3
:106D0000184652020C680546A418246B30352354EB
:106D10000C68A418246B63550C683035A418246BD8
:106D200063550C68A418256B04469034401CC0B20F
:106D30002B552D28E6D309688A18106B90600446FD
:106D400030345460903010600B480C464834038057
:106D50000922427105238371C2710372418100F0DF
:106D60000DF8FF2020706070A070E0701F2020716F
:106D700070BD0000F4040020C000002010B50648DB
:106D800001680648406A002803D020220EF014FC57
:106D900010BD0020087010BDF40400206413002012
:106DA000F0B51A4B0026DC8F194602270125C97859
:106DB000A41C844216D11078012809D19D72D87A7A
:106DC0001BE000291CD002291CD020201870F0BD27
:106DD0000028FCD1012903D00329F8D1DF70F0BDD0
:106DE000DE70F0BD094C40342488A41C8442F8D1E4
:106DF00010780128ECD1DD72987A0028E1D1F0BD3D
:106E0000DD70E2E70320D870DFE700006C0A0020A5
:106E1000F3B541480E46417881B0002909D0817808
:106E2000002908D0C078032807D0012805D03120D8
:106E3000FEBD2020FEBD1020FEBD374C7D2140341C
:106E40002089C901884208D1102E16D0202E14D0D6
:106E5000502E12D0A02E0CD10FE07D218901884246
:106E600009D1082E09D0102E07D0282E05D0502E7B
:106E700003D05020FEBD0120FEBD002529E0A07AF0
:106E8000401941000198081840383E21415E2348CE
:106E900000F04EF8214F3F1F3870A07AE17A401879
:106EA000401941000198081840383E21415E381DC4
:106EB00000F03EF878703978174B0A07120F218AD4
:106EC00000015C3302435A54491C2182E07A40009D
:106ED0004519E07A7043A842D1D8208A627B002508
:106EE000904204D101200C4920765C3108E0217BDE
:106EF00088420FD125820220207607485C30111885
:106F00000548FC3000F09CF803493020CD80087023
:106F10004020FEBD4120FEBD6C0A0020C0030020C1
:106F20000249888001208870704700006C0A0020A8
:106F3000F0B50026825F1E4B9446520045689B5A6E
:106F4000491B01D508264942DA08994203DB04248B
:106F50002643C91AD2185C08A14203DB02273E432C
:106F6000091BA2186408A14203DB01210E43990802
:106F70008A18310701D5A91A00E0A9180D4A416005
:106F8000914202DCD243914200DA4260084A6146F3
:106F9000B2329257891809B20180002901DA002122
:106FA00002E0582901DD582101803046F0BD000083
:106FB00098AB0610FF7F0000014800787047000082
:106FC0006C0A002010B5134C218900290AD02046F4
:106FD000C0882278401C002380B2402A04D0302A86
:106FE00007D014E0012010BDE08088420FD1E3807B
:106FF0000BE0E08088420AD10F20606505484030F0
:1070000003820548E3800380436020202070002035
:1070100010BD00006C0A0020C003002010B55C21E8
:107020000348FDF71FFB024800210170C17010BD2D
:107030006C0A002001484078704700006C0A00206C
:1070400070B514460646FDF7E5FA164A3019516D3B
:107050001446491C002540345165102909D00621E9
:10706000FDF700FBA07B801FC0B26076A576E576B9
:1070700070BD0D4955650A7802700A881212427077
:107080000A7982708A881212C2704A6812140271D8
:107090004968090E4171A07B811F61760621A176A6
:1070A000E5E700006C0A0020C0030020F8B51D4E83
:1070B000B07A002833D0F07A002830D00020F08059
:1070C00030203746FC3734463070403410E00D1A1B
:1070D000142D00DD1425C0190090EBB2F18FB08F94
:1070E00000220CF08DFA642817D0E07E4019E0767B
:1070F000E07E617E8842EAD3A07E00280AD0E07E4E
:107100000623C01900902188B08F00220CF078FA75
:10711000642802D000202076F8BD8020F8BD6020D1
:10712000F8BD00006C0A002070B51A4D00212970CE
:107130000F226A65FF22F5322A812C46E98040340D
:1071400021822176C178002922D0827891421FD8ED
:10715000521E082A1CD2A1728178E17201887D2218
:107160009201914202D05200914211D121810088B6
:10717000C821FDF725FA4006000E20734008607311
:10718000801DA0730120687010202870002070BD41
:10719000012070BD6C0A0020044902888A87428859
:1071A000CA87818801484030018070476C0A0020FE
:1071B000F8B5069C1F4615460646002C13D0A0685D
:1071C00002220D3006F0A2FEE81E82B23B460721E5
:1071D000204607F003F8E580A068012E05D01D21A8
:1071E00001730020F8BD4720F8BD1B21F8E770B5FA
:1071F00015460646FEF7EAFD0446082D0BD1052C80
:1072000009D1304608F050FF002804D0008A40041D
:10721000800F00D00024204670BD2423184204D0E3
:10722000C81F092803D82032D1710020704742209E
:1072300070470000F1B5FFB08BB0012460020590EB
:107240000027CC4807970168E320C0000818039086
:107250008A98C74D0005000D0AAA05A908F093FBFE
:107260000690002872D104260AA805994218203AEF
:10727000D27F0B2A23D00026002004900AA881196F
:10728000022201A8029106F041FE6846818809ABFE
:1072900008AA039803F0A4FE012817D002287DD085
:1072A00068468088854200D30546844200D920463E
:1072B000044602988078012871D013363BE1491EBC
:1072C000761E36040591360CCFD1D5E7089800908C
:1072D000002F79D1009902222831029806F012FE7F
